{
  "transactions": [
    {
      "hash": "0xcf3f505cca8a1b91ffa3c6a8da4eaa46b44cc891485424023f5ece42166ba709",
      "transactionType": "CALL",
      "contractName": null,
      "contractAddress": "0x779877a7b0d9e8603169ddbd7836e478b4624789",
      "function": "transferAndCall(address,uint256,bytes)",
      "arguments": [
        "0x9DdfaCa8183c41ad55329BdeeD9F6A8d53168B1B",
        "3000000000000000000",
        "0xada1f1338e8eb5f751216ad668c7e8ff0b8986bb78b450feea39ab705fe3af52"
      ],
      "transaction": {
        "from": "0x2d3ba713dffa8b78ee874ad7c217d9d97c7915e2",
        "to": "0x779877a7b0d9e8603169ddbd7836e478b4624789",
        "gas": "0x1c1ff",
        "value": "0x0",
        "input": "0x4000aea00000000000000000000000009ddfaca8183c41ad55329bdeed9f6a8d53168b1b00000000000000000000000000000000000000000000000029a2241af62c000000000000000000000000000000000000000000000000000000000000000000600000000000000000000000000000000000000000000000000000000000000020ada1f1338e8eb5f751216ad668c7e8ff0b8986bb78b450feea39ab705fe3af52",
        "nonce": "0x56",
        "chainId": "0xaa36a7"
      },
      "additionalContracts": [],
      "isFixedGasLimit": false
    }
  ],
  "receipts": [
    {
      "status": "0x1",
      "cumulativeGasUsed": "0x7b313d",
      "logs": [
        {
          "address": "0x779877a7b0d9e8603169ddbd7836e478b4624789",
          "topics": [
            "0xddf252ad1be2c89b69c2b068fc378daa952ba7f163c4a11628f55a4df523b3ef",
            "0x0000000000000000000000002d3ba713dffa8b78ee874ad7c217d9d97c7915e2",
            "0x0000000000000000000000009ddfaca8183c41ad55329bdeed9f6a8d53168b1b"
          ],
          "data": "0x00000000000000000000000000000000000000000000000029a2241af62c0000",
          "blockHash": "0x332a75cc3bf88ffec33a98833d654272e8a72e52ce9ecc1015499ca08a27b964",
          "blockNumber": "0x6a571b",
          "transactionHash": "0xcf3f505cca8a1b91ffa3c6a8da4eaa46b44cc891485424023f5ece42166ba709",
          "transactionIndex": "0x41",
          "logIndex": "0x4c",
          "removed": false
        },
        {
          "address": "0x779877a7b0d9e8603169ddbd7836e478b4624789",
          "topics": [
            "0xe19260aff97b920c7df27010903aeb9c8d2be5d310a2c67824cf3f15396e4c16",
            "0x0000000000000000000000002d3ba713dffa8b78ee874ad7c217d9d97c7915e2",
            "0x0000000000000000000000009ddfaca8183c41ad55329bdeed9f6a8d53168b1b"
          ],
          "data": "0x00000000000000000000000000000000000000000000000029a2241af62c000000000000000000000000000000000000000000000000000000000000000000400000000000000000000000000000000000000000000000000000000000000020ada1f1338e8eb5f751216ad668c7e8ff0b8986bb78b450feea39ab705fe3af52",
          "blockHash": "0x332a75cc3bf88ffec33a98833d654272e8a72e52ce9ecc1015499ca08a27b964",
          "blockNumber": "0x6a571b",
          "transactionHash": "0xcf3f505cca8a1b91ffa3c6a8da4eaa46b44cc891485424023f5ece42166ba709",
          "transactionIndex": "0x41",
          "logIndex": "0x4d",
          "removed": false
        },
        {
          "address": "0x9ddfaca8183c41ad55329bdeed9f6a8d53168b1b",
          "topics": [
            "0x1ced9348ff549fceab2ac57cd3a9de38edaaab274b725ee82c23e8fc8c4eec7a",
            "0xada1f1338e8eb5f751216ad668c7e8ff0b8986bb78b450feea39ab705fe3af52"
          ],
          "data": "0x000000000000000000000000000000000000000000000000000000000000000000000000000000000000000000000000000000000000000029a2241af62c0000",
          "blockHash": "0x332a75cc3bf88ffec33a98833d654272e8a72e52ce9ecc1015499ca08a27b964",
          "blockNumber": "0x6a571b",
          "transactionHash": "0xcf3f505cca8a1b91ffa3c6a8da4eaa46b44cc891485424023f5ece42166ba709",
          "transactionIndex": "0x41",
          "logIndex": "0x4e",
          "removed": false
        }
      ],
      "logsBloom": "0x00000004000000000000000000000000000000000020000000000000020200000000000000000400000000000000000000000000000000000000000000000000000000000000000000000008000000000000000800000000000020000020000008000000000000000000000000000000000000000000000000000010000040000000000000000000000000010000800000000020000000000000000000000800000000000000000000000000010000000000000000000000000004000000000000000002000000000000000000000000000800000000000100000000000000000010000000000000800000000000000000000000000000000000000000000800",
      "type": "0x2",
      "transactionHash": "0xcf3f505cca8a1b91ffa3c6a8da4eaa46b44cc891485424023f5ece42166ba709",
      "transactionIndex": "0x41",
      "blockHash": "0x332a75cc3bf88ffec33a98833d654272e8a72e52ce9ecc1015499ca08a27b964",
      "blockNumber": "0x6a571b",
      "gasUsed": "0x133b1",
      "effectiveGasPrice": "0xacc8b523",
      "from": "0x2d3ba713dffa8b78ee874ad7c217d9d97c7915e2",
      "to": "0x779877a7b0d9e8603169ddbd7836e478b4624789",
      "contractAddress": null
    }
  ],
  "libraries": [],
  "pending": [],
  "returns": {},
  "timestamp": 1730195631,
  "chain": 11155111,
  "commit": "c5007bf"
}