{
  "transactions": [
    {
      "hash": "0x8bb314df3f4789a3482a2c0a8a051719d6e43ae9e84d4f5467de49402a70fd49",
      "transactionType": "CALL",
      "contractName": null,
      "contractAddress": "0x779877a7b0d9e8603169ddbd7836e478b4624789",
      "function": "transferAndCall(address,uint256,bytes)",
      "arguments": [
        "0x9DdfaCa8183c41ad55329BdeeD9F6A8d53168B1B",
        "3000000000000000000",
        "0x1ce6e23879af614a842f6a290ec1a975bf42629cdca9c45e16cce3e53fae611f"
      ],
      "transaction": {
        "from": "0x2d3ba713dffa8b78ee874ad7c217d9d97c7915e2",
        "to": "0x779877a7b0d9e8603169ddbd7836e478b4624789",
        "gas": "0x1c1ff",
        "value": "0x0",
        "input": "0x4000aea00000000000000000000000009ddfaca8183c41ad55329bdeed9f6a8d53168b1b00000000000000000000000000000000000000000000000029a2241af62c0000000000000000000000000000000000000000000000000000000000000000006000000000000000000000000000000000000000000000000000000000000000201ce6e23879af614a842f6a290ec1a975bf42629cdca9c45e16cce3e53fae611f",
        "nonce": "0x59",
        "chainId": "0xaa36a7"
      },
      "additionalContracts": [],
      "isFixedGasLimit": false
    }
  ],
  "receipts": [
    {
      "status": "0x1",
      "cumulativeGasUsed": "0x73611e",
      "logs": [
        {
          "address": "0x779877a7b0d9e8603169ddbd7836e478b4624789",
          "topics": [
            "0xddf252ad1be2c89b69c2b068fc378daa952ba7f163c4a11628f55a4df523b3ef",
            "0x0000000000000000000000002d3ba713dffa8b78ee874ad7c217d9d97c7915e2",
            "0x0000000000000000000000009ddfaca8183c41ad55329bdeed9f6a8d53168b1b"
          ],
          "data": "0x00000000000000000000000000000000000000000000000029a2241af62c0000",
          "blockHash": "0x2b1daacaa0c2f9bd76ff32b134c7428f244064d97182e2cfd1fb2990b71d6820",
          "blockNumber": "0x6a5750",
          "transactionHash": "0x8bb314df3f4789a3482a2c0a8a051719d6e43ae9e84d4f5467de49402a70fd49",
          "transactionIndex": "0x40",
          "logIndex": "0x62",
          "removed": false
        },
        {
          "address": "0x779877a7b0d9e8603169ddbd7836e478b4624789",
          "topics": [
            "0xe19260aff97b920c7df27010903aeb9c8d2be5d310a2c67824cf3f15396e4c16",
            "0x0000000000000000000000002d3ba713dffa8b78ee874ad7c217d9d97c7915e2",
            "0x0000000000000000000000009ddfaca8183c41ad55329bdeed9f6a8d53168b1b"
          ],
          "data": "0x00000000000000000000000000000000000000000000000029a2241af62c0000000000000000000000000000000000000000000000000000000000000000004000000000000000000000000000000000000000000000000000000000000000201ce6e23879af614a842f6a290ec1a975bf42629cdca9c45e16cce3e53fae611f",
          "blockHash": "0x2b1daacaa0c2f9bd76ff32b134c7428f244064d97182e2cfd1fb2990b71d6820",
          "blockNumber": "0x6a5750",
          "transactionHash": "0x8bb314df3f4789a3482a2c0a8a051719d6e43ae9e84d4f5467de49402a70fd49",
          "transactionIndex": "0x40",
          "logIndex": "0x63",
          "removed": false
        },
        {
          "address": "0x9ddfaca8183c41ad55329bdeed9f6a8d53168b1b",
          "topics": [
            "0x1ced9348ff549fceab2ac57cd3a9de38edaaab274b725ee82c23e8fc8c4eec7a",
            "0x1ce6e23879af614a842f6a290ec1a975bf42629cdca9c45e16cce3e53fae611f"
          ],
          "data": "0x000000000000000000000000000000000000000000000000000000000000000000000000000000000000000000000000000000000000000029a2241af62c0000",
          "blockHash": "0x2b1daacaa0c2f9bd76ff32b134c7428f244064d97182e2cfd1fb2990b71d6820",
          "blockNumber": "0x6a5750",
          "transactionHash": "0x8bb314df3f4789a3482a2c0a8a051719d6e43ae9e84d4f5467de49402a70fd49",
          "transactionIndex": "0x40",
          "logIndex": "0x64",
          "removed": false
        }
      ],
      "logsBloom": "0x00000004000000000000000000000000000000000020000000000000020000000000000000000400000000000000000000000000000002000000000000000000000000000000000000000008000000000000000800000000000020000020000008000000000000000000000000000000000000000000000000000010000040000000000000000000000000010000800000000020000000000000000000000000000000000000000000000000010000000000000000000000000004000000000000000002000000000000000000000000000000000000000100000000000000000010000000008000800000000000000200000000000000000000000000000800",
      "type": "0x2",
      "transactionHash": "0x8bb314df3f4789a3482a2c0a8a051719d6e43ae9e84d4f5467de49402a70fd49",
      "transactionIndex": "0x40",
      "blockHash": "0x2b1daacaa0c2f9bd76ff32b134c7428f244064d97182e2cfd1fb2990b71d6820",
      "blockNumber": "0x6a5750",
      "gasUsed": "0x133b1",
      "effectiveGasPrice": "0x8d2e4837",
      "from": "0x2d3ba713dffa8b78ee874ad7c217d9d97c7915e2",
      "to": "0x779877a7b0d9e8603169ddbd7836e478b4624789",
      "contractAddress": null
    }
  ],
  "libraries": [],
  "pending": [],
  "returns": {},
  "timestamp": 1730196291,
  "chain": 11155111,
  "commit": "c5007bf"
}